{
  "_format": "hh-sol-artifact-1",
  "contractName": "VolcanoNFT",
  "sourceName": "contracts/VolcanoNFT.sol",
  "abi": [
    {
      "inputs": [],
      "stateMutability": "nonpayable",
      "type": "constructor"
    },
    {
      "anonymous": false,
      "inputs": [
        {
          "indexed": true,
          "internalType": "address",
          "name": "owner",
          "type": "address"
        },
        {
          "indexed": true,
          "internalType": "address",
          "name": "approved",
          "type": "address"
        },
        {
          "indexed": true,
          "internalType": "uint256",
          "name": "tokenId",
          "type": "uint256"
        }
      ],
      "name": "Approval",
      "type": "event"
    },
    {
      "anonymous": false,
      "inputs": [
        {
          "indexed": true,
          "internalType": "address",
          "name": "owner",
          "type": "address"
        },
        {
          "indexed": true,
          "internalType": "address",
          "name": "operator",
          "type": "address"
        },
        {
          "indexed": false,
          "internalType": "bool",
          "name": "approved",
          "type": "bool"
        }
      ],
      "name": "ApprovalForAll",
      "type": "event"
    },
    {
      "anonymous": false,
      "inputs": [
        {
          "indexed": true,
          "internalType": "address",
          "name": "from",
          "type": "address"
        },
        {
          "indexed": true,
          "internalType": "address",
          "name": "to",
          "type": "address"
        },
        {
          "indexed": true,
          "internalType": "uint256",
          "name": "tokenId",
          "type": "uint256"
        }
      ],
      "name": "Transfer",
      "type": "event"
    },
    {
      "inputs": [
        {
          "internalType": "address",
          "name": "to",
          "type": "address"
        },
        {
          "internalType": "uint256",
          "name": "tokenId",
          "type": "uint256"
        }
      ],
      "name": "approve",
      "outputs": [],
      "stateMutability": "nonpayable",
      "type": "function"
    },
    {
      "inputs": [
        {
          "internalType": "address",
          "name": "owner",
          "type": "address"
        }
      ],
      "name": "balanceOf",
      "outputs": [
        {
          "internalType": "uint256",
          "name": "",
          "type": "uint256"
        }
      ],
      "stateMutability": "view",
      "type": "function"
    },
    {
      "inputs": [],
      "name": "baseTokenURI",
      "outputs": [
        {
          "internalType": "string",
          "name": "",
          "type": "string"
        }
      ],
      "stateMutability": "view",
      "type": "function"
    },
    {
      "inputs": [
        {
          "internalType": "uint256",
          "name": "tokenId",
          "type": "uint256"
        }
      ],
      "name": "getApproved",
      "outputs": [
        {
          "internalType": "address",
          "name": "",
          "type": "address"
        }
      ],
      "stateMutability": "view",
      "type": "function"
    },
    {
      "inputs": [
        {
          "internalType": "address",
          "name": "owner",
          "type": "address"
        },
        {
          "internalType": "address",
          "name": "operator",
          "type": "address"
        }
      ],
      "name": "isApprovedForAll",
      "outputs": [
        {
          "internalType": "bool",
          "name": "",
          "type": "bool"
        }
      ],
      "stateMutability": "view",
      "type": "function"
    },
    {
      "inputs": [
        {
          "internalType": "address",
          "name": "recipient",
          "type": "address"
        }
      ],
      "name": "mintTo",
      "outputs": [
        {
          "internalType": "uint256",
          "name": "",
          "type": "uint256"
        }
      ],
      "stateMutability": "nonpayable",
      "type": "function"
    },
    {
      "inputs": [],
      "name": "name",
      "outputs": [
        {
          "internalType": "string",
          "name": "",
          "type": "string"
        }
      ],
      "stateMutability": "view",
      "type": "function"
    },
    {
      "inputs": [
        {
          "internalType": "uint256",
          "name": "tokenId",
          "type": "uint256"
        }
      ],
      "name": "ownerOf",
      "outputs": [
        {
          "internalType": "address",
          "name": "",
          "type": "address"
        }
      ],
      "stateMutability": "view",
      "type": "function"
    },
    {
      "inputs": [
        {
          "internalType": "address",
          "name": "from",
          "type": "address"
        },
        {
          "internalType": "address",
          "name": "to",
          "type": "address"
        },
        {
          "internalType": "uint256",
          "name": "tokenId",
          "type": "uint256"
        }
      ],
      "name": "safeTransferFrom",
      "outputs": [],
      "stateMutability": "nonpayable",
      "type": "function"
    },
    {
      "inputs": [
        {
          "internalType": "address",
          "name": "from",
          "type": "address"
        },
        {
          "internalType": "address",
          "name": "to",
          "type": "address"
        },
        {
          "internalType": "uint256",
          "name": "tokenId",
          "type": "uint256"
        },
        {
          "internalType": "bytes",
          "name": "data",
          "type": "bytes"
        }
      ],
      "name": "safeTransferFrom",
      "outputs": [],
      "stateMutability": "nonpayable",
      "type": "function"
    },
    {
      "inputs": [
        {
          "internalType": "address",
          "name": "operator",
          "type": "address"
        },
        {
          "internalType": "bool",
          "name": "approved",
          "type": "bool"
        }
      ],
      "name": "setApprovalForAll",
      "outputs": [],
      "stateMutability": "nonpayable",
      "type": "function"
    },
    {
      "inputs": [
        {
          "internalType": "string",
          "name": "_baseTokenURI",
          "type": "string"
        }
      ],
      "name": "setBaseTokenURI",
      "outputs": [],
      "stateMutability": "nonpayable",
      "type": "function"
    },
    {
      "inputs": [
        {
          "internalType": "bytes4",
          "name": "interfaceId",
          "type": "bytes4"
        }
      ],
      "name": "supportsInterface",
      "outputs": [
        {
          "internalType": "bool",
          "name": "",
          "type": "bool"
        }
      ],
      "stateMutability": "view",
      "type": "function"
    },
    {
      "inputs": [],
      "name": "symbol",
      "outputs": [
        {
          "internalType": "string",
          "name": "",
          "type": "string"
        }
      ],
      "stateMutability": "view",
      "type": "function"
    },
    {
      "inputs": [
        {
          "internalType": "uint256",
          "name": "tokenId",
          "type": "uint256"
        }
      ],
      "name": "tokenURI",
      "outputs": [
        {
          "internalType": "string",
          "name": "",
          "type": "string"
        }
      ],
      "stateMutability": "view",
      "type": "function"
    },
    {
      "inputs": [
        {
          "internalType": "address",
          "name": "from",
          "type": "address"
        },
        {
          "internalType": "address",
          "name": "to",
          "type": "address"
        },
        {
          "internalType": "uint256",
          "name": "tokenId",
          "type": "uint256"
        }
      ],
      "name": "transferFrom",
      "outputs": [],
      "stateMutability": "nonpayable",
      "type": "function"
    }
  ],
  "bytecode": "0x60806040523480156200001157600080fd5b506040518060400160405280600a81526020017f566f6c63616e6f4e4654000000000000000000000000000000000000000000008152506040518060400160405280600481526020017f4d474d4100000000000000000000000000000000000000000000000000000000815250816000908051906020019062000096929190620000e0565b508060019080519060200190620000af929190620000e0565b5050506040518060200160405280600081525060079080519060200190620000d9929190620000e0565b50620001f5565b828054620000ee9062000190565b90600052602060002090601f0160209004810192826200011257600085556200015e565b82601f106200012d57805160ff19168380011785556200015e565b828001600101855582156200015e579182015b828111156200015d57825182559160200191906001019062000140565b5b5090506200016d919062000171565b5090565b5b808211156200018c57600081600090555060010162000172565b5090565b60006002820490506001821680620001a957607f821691505b60208210811415620001c057620001bf620001c6565b5b50919050565b7f4e487b7100000000000000000000000000000000000000000000000000000000600052602260045260246000fd5b612ada80620002056000396000f3fe608060405234801561001057600080fd5b50600436106101005760003560e01c806370a0823111610097578063b88d4fde11610066578063b88d4fde146102bd578063c87b56dd146102d9578063d547cfb714610309578063e985e9c51461032757610100565b806370a0823114610223578063755edd171461025357806395d89b4114610283578063a22cb465146102a157610100565b806323b872dd116100d357806323b872dd1461019f57806330176e13146101bb57806342842e0e146101d75780636352211e146101f357610100565b806301ffc9a71461010557806306fdde0314610135578063081812fc14610153578063095ea7b314610183575b600080fd5b61011f600480360381019061011a9190611f20565b610357565b60405161012c91906122b8565b60405180910390f35b61013d610439565b60405161014a91906122d3565b60405180910390f35b61016d60048036038101906101689190611fb3565b6104cb565b60405161017a9190612251565b60405180910390f35b61019d60048036038101906101989190611ee4565b610511565b005b6101b960048036038101906101b49190611dde565b610629565b005b6101d560048036038101906101d09190611f72565b610689565b005b6101f160048036038101906101ec9190611dde565b6106a3565b005b61020d60048036038101906102089190611fb3565b6106c3565b60405161021a9190612251565b60405180910390f35b61023d60048036038101906102389190611d79565b61074a565b60405161024a9190612455565b60405180910390f35b61026d60048036038101906102689190611d79565b610802565b60405161027a9190612455565b60405180910390f35b61028b61082f565b60405161029891906122d3565b60405180910390f35b6102bb60048036038101906102b69190611ea8565b6108c1565b005b6102d760048036038101906102d29190611e2d565b6108d7565b005b6102f360048036038101906102ee9190611fb3565b610939565b60405161030091906122d3565b60405180910390f35b6103116109a1565b60405161031e91906122d3565b60405180910390f35b610341600480360381019061033c9190611da2565b610a2f565b60405161034e91906122b8565b60405180910390f35b60007f80ac58cd000000000000000000000000000000000000000000000000000000007bffffffffffffffffffffffffffffffffffffffffffffffffffffffff1916827bffffffffffffffffffffffffffffffffffffffffffffffffffffffff1916148061042257507f5b5e139f000000000000000000000000000000000000000000000000000000007bffffffffffffffffffffffffffffffffffffffffffffffffffffffff1916827bffffffffffffffffffffffffffffffffffffffffffffffffffffffff1916145b80610432575061043182610ac3565b5b9050919050565b6060600080546104489061267a565b80601f01602080910402602001604051908101604052809291908181526020018280546104749061267a565b80156104c15780601f10610496576101008083540402835291602001916104c1565b820191906000526020600020905b8154815290600101906020018083116104a457829003601f168201915b5050505050905090565b60006104d682610b2d565b6004600083815260200190815260200160002060009054906101000a900473ffffffffffffffffffffffffffffffffffffffff169050919050565b600061051c826106c3565b90508073ffffffffffffffffffffffffffffffffffffffff168373ffffffffffffffffffffffffffffffffffffffff16141561058d576040517f08c379a000000000000000000000000000000000000000000000000000000000815260040161058490612415565b60405180910390fd5b8073ffffffffffffffffffffffffffffffffffffffff166105ac610b78565b73ffffffffffffffffffffffffffffffffffffffff1614806105db57506105da816105d5610b78565b610a2f565b5b61061a576040517f08c379a000000000000000000000000000000000000000000000000000000000815260040161061190612435565b60405180910390fd5b6106248383610b80565b505050565b61063a610634610b78565b82610c39565b610679576040517f08c379a0000000000000000000000000000000000000000000000000000000008152600401610670906122f5565b60405180910390fd5b610684838383610cce565b505050565b806007908051906020019061069f929190611b9d565b5050565b6106be838383604051806020016040528060008152506108d7565b505050565b6000806106cf83610fc8565b9050600073ffffffffffffffffffffffffffffffffffffffff168173ffffffffffffffffffffffffffffffffffffffff161415610741576040517f08c379a0000000000000000000000000000000000000000000000000000000008152600401610738906123f5565b60405180910390fd5b80915050919050565b60008073ffffffffffffffffffffffffffffffffffffffff168273ffffffffffffffffffffffffffffffffffffffff1614156107bb576040517f08c379a00000000000000000000000000000000000000000000000000000000081526004016107b2906123b5565b60405180910390fd5b600360008373ffffffffffffffffffffffffffffffffffffffff1673ffffffffffffffffffffffffffffffffffffffff168152602001908152602001600020549050919050565b600061080e6006611005565b600061081a600661101b565b90506108268382611029565b80915050919050565b60606001805461083e9061267a565b80601f016020809104026020016040519081016040528092919081815260200182805461086a9061267a565b80156108b75780601f1061088c576101008083540402835291602001916108b7565b820191906000526020600020905b81548152906001019060200180831161089a57829003601f168201915b5050505050905090565b6108d36108cc610b78565b8383611047565b5050565b6108e86108e2610b78565b83610c39565b610927576040517f08c379a000000000000000000000000000000000000000000000000000000000815260040161091e906122f5565b60405180910390fd5b610933848484846111b4565b50505050565b606061094482610b2d565b600061094e611210565b9050600081511161096e5760405180602001604052806000815250610999565b80610978846112a2565b60405160200161098992919061222d565b6040516020818303038152906040525b915050919050565b600780546109ae9061267a565b80601f01602080910402602001604051908101604052809291908181526020018280546109da9061267a565b8015610a275780601f106109fc57610100808354040283529160200191610a27565b820191906000526020600020905b815481529060010190602001808311610a0a57829003601f168201915b505050505081565b6000600560008473ffffffffffffffffffffffffffffffffffffffff1673ffffffffffffffffffffffffffffffffffffffff16815260200190815260200160002060008373ffffffffffffffffffffffffffffffffffffffff1673ffffffffffffffffffffffffffffffffffffffff16815260200190815260200160002060009054906101000a900460ff16905092915050565b60007f01ffc9a7000000000000000000000000000000000000000000000000000000007bffffffffffffffffffffffffffffffffffffffffffffffffffffffff1916827bffffffffffffffffffffffffffffffffffffffffffffffffffffffff1916149050919050565b610b36816113c6565b610b75576040517f08c379a0000000000000000000000000000000000000000000000000000000008152600401610b6c906123f5565b60405180910390fd5b50565b600033905090565b816004600083815260200190815260200160002060006101000a81548173ffffffffffffffffffffffffffffffffffffffff021916908373ffffffffffffffffffffffffffffffffffffffff160217905550808273ffffffffffffffffffffffffffffffffffffffff16610bf3836106c3565b73ffffffffffffffffffffffffffffffffffffffff167f8c5be1e5ebec7d5bd14f71427d1e84f3dd0314c0f7b2291e5b200ac8c7c3b92560405160405180910390a45050565b600080610c45836106c3565b90508073ffffffffffffffffffffffffffffffffffffffff168473ffffffffffffffffffffffffffffffffffffffff161480610c875750610c868185610a2f565b5b80610cc557508373ffffffffffffffffffffffffffffffffffffffff16610cad846104cb565b73ffffffffffffffffffffffffffffffffffffffff16145b91505092915050565b8273ffffffffffffffffffffffffffffffffffffffff16610cee826106c3565b73ffffffffffffffffffffffffffffffffffffffff1614610d44576040517f08c379a0000000000000000000000000000000000000000000000000000000008152600401610d3b90612335565b60405180910390fd5b600073ffffffffffffffffffffffffffffffffffffffff168273ffffffffffffffffffffffffffffffffffffffff161415610db4576040517f08c379a0000000000000000000000000000000000000000000000000000000008152600401610dab90612375565b60405180910390fd5b610dc18383836001611407565b8273ffffffffffffffffffffffffffffffffffffffff16610de1826106c3565b73ffffffffffffffffffffffffffffffffffffffff1614610e37576040517f08c379a0000000000000000000000000000000000000000000000000000000008152600401610e2e90612335565b60405180910390fd5b6004600082815260200190815260200160002060006101000a81549073ffffffffffffffffffffffffffffffffffffffff02191690556001600360008573ffffffffffffffffffffffffffffffffffffffff1673ffffffffffffffffffffffffffffffffffffffff168152602001908152602001600020600082825403925050819055506001600360008473ffffffffffffffffffffffffffffffffffffffff1673ffffffffffffffffffffffffffffffffffffffff16815260200190815260200160002060008282540192505081905550816002600083815260200190815260200160002060006101000a81548173ffffffffffffffffffffffffffffffffffffffff021916908373ffffffffffffffffffffffffffffffffffffffff160217905550808273ffffffffffffffffffffffffffffffffffffffff168473ffffffffffffffffffffffffffffffffffffffff167fddf252ad1be2c89b69c2b068fc378daa952ba7f163c4a11628f55a4df523b3ef60405160405180910390a4610fc3838383600161152d565b505050565b60006002600083815260200190815260200160002060009054906101000a900473ffffffffffffffffffffffffffffffffffffffff169050919050565b6001816000016000828254019250508190555050565b600081600001549050919050565b611043828260405180602001604052806000815250611533565b5050565b8173ffffffffffffffffffffffffffffffffffffffff168373ffffffffffffffffffffffffffffffffffffffff1614156110b6576040517f08c379a00000000000000000000000000000000000000000000000000000000081526004016110ad90612395565b60405180910390fd5b80600560008573ffffffffffffffffffffffffffffffffffffffff1673ffffffffffffffffffffffffffffffffffffffff16815260200190815260200160002060008473ffffffffffffffffffffffffffffffffffffffff1673ffffffffffffffffffffffffffffffffffffffff16815260200190815260200160002060006101000a81548160ff0219169083151502179055508173ffffffffffffffffffffffffffffffffffffffff168373ffffffffffffffffffffffffffffffffffffffff167f17307eab39ab6107e8899845ad3d59bd9653f200f220920489ca2b5937696c31836040516111a791906122b8565b60405180910390a3505050565b6111bf848484610cce565b6111cb8484848461158e565b61120a576040517f08c379a000000000000000000000000000000000000000000000000000000000815260040161120190612315565b60405180910390fd5b50505050565b60606007805461121f9061267a565b80601f016020809104026020016040519081016040528092919081815260200182805461124b9061267a565b80156112985780601f1061126d57610100808354040283529160200191611298565b820191906000526020600020905b81548152906001019060200180831161127b57829003601f168201915b5050505050905090565b6060600060016112b184611725565b01905060008167ffffffffffffffff8111156112f6577f4e487b7100000000000000000000000000000000000000000000000000000000600052604160045260246000fd5b6040519080825280601f01601f1916602001820160405280156113285781602001600182028036833780820191505090505b509050600082602001820190505b6001156113bb578080600190039150507f3031323334353637383961626364656600000000000000000000000000000000600a86061a8153600a85816113a5577f4e487b7100000000000000000000000000000000000000000000000000000000600052601260045260246000fd5b04945060008514156113b6576113bb565b611336565b819350505050919050565b60008073ffffffffffffffffffffffffffffffffffffffff166113e883610fc8565b73ffffffffffffffffffffffffffffffffffffffff1614159050919050565b600181111561152757600073ffffffffffffffffffffffffffffffffffffffff168473ffffffffffffffffffffffffffffffffffffffff161461149b5780600360008673ffffffffffffffffffffffffffffffffffffffff1673ffffffffffffffffffffffffffffffffffffffff16815260200190815260200160002060008282546114939190612590565b925050819055505b600073ffffffffffffffffffffffffffffffffffffffff168373ffffffffffffffffffffffffffffffffffffffff16146115265780600360008573ffffffffffffffffffffffffffffffffffffffff1673ffffffffffffffffffffffffffffffffffffffff168152602001908152602001600020600082825461151e919061253a565b925050819055505b5b50505050565b50505050565b61153d838361195c565b61154a600084848461158e565b611589576040517f08c379a000000000000000000000000000000000000000000000000000000000815260040161158090612315565b60405180910390fd5b505050565b60006115af8473ffffffffffffffffffffffffffffffffffffffff16611b7a565b15611718578373ffffffffffffffffffffffffffffffffffffffff1663150b7a026115d8610b78565b8786866040518563ffffffff1660e01b81526004016115fa949392919061226c565b602060405180830381600087803b15801561161457600080fd5b505af192505050801561164557506040513d601f19601f820116820180604052508101906116429190611f49565b60015b6116c8573d8060008114611675576040519150601f19603f3d011682016040523d82523d6000602084013e61167a565b606091505b506000815114156116c0576040517f08c379a00000000000000000000000000000000000000000000000000000000081526004016116b790612315565b60405180910390fd5b805181602001fd5b63150b7a0260e01b7bffffffffffffffffffffffffffffffffffffffffffffffffffffffff1916817bffffffffffffffffffffffffffffffffffffffffffffffffffffffff19161491505061171d565b600190505b949350505050565b600080600090507a184f03e93ff9f4daa797ed6e38ed64bf6a1f01000000000000000083106117a9577a184f03e93ff9f4daa797ed6e38ed64bf6a1f010000000000000000838161179f577f4e487b7100000000000000000000000000000000000000000000000000000000600052601260045260246000fd5b0492506040810190505b6d04ee2d6d415b85acef8100000000831061180c576d04ee2d6d415b85acef81000000008381611802577f4e487b7100000000000000000000000000000000000000000000000000000000600052601260045260246000fd5b0492506020810190505b662386f26fc10000831061186157662386f26fc100008381611857577f4e487b7100000000000000000000000000000000000000000000000000000000600052601260045260246000fd5b0492506010810190505b6305f5e10083106118b0576305f5e10083816118a6577f4e487b7100000000000000000000000000000000000000000000000000000000600052601260045260246000fd5b0492506008810190505b61271083106118fb5761271083816118f1577f4e487b7100000000000000000000000000000000000000000000000000000000600052601260045260246000fd5b0492506004810190505b60648310611944576064838161193a577f4e487b7100000000000000000000000000000000000000000000000000000000600052601260045260246000fd5b0492506002810190505b600a8310611953576001810190505b80915050919050565b600073ffffffffffffffffffffffffffffffffffffffff168273ffffffffffffffffffffffffffffffffffffffff1614156119cc576040517f08c379a00000000000000000000000000000000000000000000000000000000081526004016119c3906123d5565b60405180910390fd5b6119d5816113c6565b15611a15576040517f08c379a0000000000000000000000000000000000000000000000000000000008152600401611a0c90612355565b60405180910390fd5b611a23600083836001611407565b611a2c816113c6565b15611a6c576040517f08c379a0000000000000000000000000000000000000000000000000000000008152600401611a6390612355565b60405180910390fd5b6001600360008473ffffffffffffffffffffffffffffffffffffffff1673ffffffffffffffffffffffffffffffffffffffff16815260200190815260200160002060008282540192505081905550816002600083815260200190815260200160002060006101000a81548173ffffffffffffffffffffffffffffffffffffffff021916908373ffffffffffffffffffffffffffffffffffffffff160217905550808273ffffffffffffffffffffffffffffffffffffffff16600073ffffffffffffffffffffffffffffffffffffffff167fddf252ad1be2c89b69c2b068fc378daa952ba7f163c4a11628f55a4df523b3ef60405160405180910390a4611b7660008383600161152d565b5050565b6000808273ffffffffffffffffffffffffffffffffffffffff163b119050919050565b828054611ba99061267a565b90600052602060002090601f016020900481019282611bcb5760008555611c12565b82601f10611be457805160ff1916838001178555611c12565b82800160010185558215611c12579182015b82811115611c11578251825591602001919060010190611bf6565b5b509050611c1f9190611c23565b5090565b5b80821115611c3c576000816000905550600101611c24565b5090565b6000611c53611c4e84612495565b612470565b905082815260208101848484011115611c6b57600080fd5b611c76848285612638565b509392505050565b6000611c91611c8c846124c6565b612470565b905082815260208101848484011115611ca957600080fd5b611cb4848285612638565b509392505050565b600081359050611ccb81612a48565b92915050565b600081359050611ce081612a5f565b92915050565b600081359050611cf581612a76565b92915050565b600081519050611d0a81612a76565b92915050565b600082601f830112611d2157600080fd5b8135611d31848260208601611c40565b91505092915050565b600082601f830112611d4b57600080fd5b8135611d5b848260208601611c7e565b91505092915050565b600081359050611d7381612a8d565b92915050565b600060208284031215611d8b57600080fd5b6000611d9984828501611cbc565b91505092915050565b60008060408385031215611db557600080fd5b6000611dc385828601611cbc565b9250506020611dd485828601611cbc565b9150509250929050565b600080600060608486031215611df357600080fd5b6000611e0186828701611cbc565b9350506020611e1286828701611cbc565b9250506040611e2386828701611d64565b9150509250925092565b60008060008060808587031215611e4357600080fd5b6000611e5187828801611cbc565b9450506020611e6287828801611cbc565b9350506040611e7387828801611d64565b925050606085013567ffffffffffffffff811115611e9057600080fd5b611e9c87828801611d10565b91505092959194509250565b60008060408385031215611ebb57600080fd5b6000611ec985828601611cbc565b9250506020611eda85828601611cd1565b9150509250929050565b60008060408385031215611ef757600080fd5b6000611f0585828601611cbc565b9250506020611f1685828601611d64565b9150509250929050565b600060208284031215611f3257600080fd5b6000611f4084828501611ce6565b91505092915050565b600060208284031215611f5b57600080fd5b6000611f6984828501611cfb565b91505092915050565b600060208284031215611f8457600080fd5b600082013567ffffffffffffffff811115611f9e57600080fd5b611faa84828501611d3a565b91505092915050565b600060208284031215611fc557600080fd5b6000611fd384828501611d64565b91505092915050565b611fe5816125c4565b82525050565b611ff4816125d6565b82525050565b6000612005826124f7565b61200f818561250d565b935061201f818560208601612647565b6120288161276a565b840191505092915050565b600061203e82612502565b612048818561251e565b9350612058818560208601612647565b6120618161276a565b840191505092915050565b600061207782612502565b612081818561252f565b9350612091818560208601612647565b80840191505092915050565b60006120aa602d8361251e565b91506120b58261277b565b604082019050919050565b60006120cd60328361251e565b91506120d8826127ca565b604082019050919050565b60006120f060258361251e565b91506120fb82612819565b604082019050919050565b6000612113601c8361251e565b915061211e82612868565b602082019050919050565b600061213660248361251e565b915061214182612891565b604082019050919050565b600061215960198361251e565b9150612164826128e0565b602082019050919050565b600061217c60298361251e565b915061218782612909565b604082019050919050565b600061219f60208361251e565b91506121aa82612958565b602082019050919050565b60006121c260188361251e565b91506121cd82612981565b602082019050919050565b60006121e560218361251e565b91506121f0826129aa565b604082019050919050565b6000612208603d8361251e565b9150612213826129f9565b604082019050919050565b6122278161262e565b82525050565b6000612239828561206c565b9150612245828461206c565b91508190509392505050565b60006020820190506122666000830184611fdc565b92915050565b60006080820190506122816000830187611fdc565b61228e6020830186611fdc565b61229b604083018561221e565b81810360608301526122ad8184611ffa565b905095945050505050565b60006020820190506122cd6000830184611feb565b92915050565b600060208201905081810360008301526122ed8184612033565b905092915050565b6000602082019050818103600083015261230e8161209d565b9050919050565b6000602082019050818103600083015261232e816120c0565b9050919050565b6000602082019050818103600083015261234e816120e3565b9050919050565b6000602082019050818103600083015261236e81612106565b9050919050565b6000602082019050818103600083015261238e81612129565b9050919050565b600060208201905081810360008301526123ae8161214c565b9050919050565b600060208201905081810360008301526123ce8161216f565b9050919050565b600060208201905081810360008301526123ee81612192565b9050919050565b6000602082019050818103600083015261240e816121b5565b9050919050565b6000602082019050818103600083015261242e816121d8565b9050919050565b6000602082019050818103600083015261244e816121fb565b9050919050565b600060208201905061246a600083018461221e565b92915050565b600061247a61248b565b905061248682826126ac565b919050565b6000604051905090565b600067ffffffffffffffff8211156124b0576124af61273b565b5b6124b98261276a565b9050602081019050919050565b600067ffffffffffffffff8211156124e1576124e061273b565b5b6124ea8261276a565b9050602081019050919050565b600081519050919050565b600081519050919050565b600082825260208201905092915050565b600082825260208201905092915050565b600081905092915050565b60006125458261262e565b91506125508361262e565b9250827fffffffffffffffffffffffffffffffffffffffffffffffffffffffffffffffff03821115612585576125846126dd565b5b828201905092915050565b600061259b8261262e565b91506125a68361262e565b9250828210156125b9576125b86126dd565b5b828203905092915050565b60006125cf8261260e565b9050919050565b60008115159050919050565b60007fffffffff0000000000000000000000000000000000000000000000000000000082169050919050565b600073ffffffffffffffffffffffffffffffffffffffff82169050919050565b6000819050919050565b82818337600083830152505050565b60005b8381101561266557808201518184015260208101905061264a565b83811115612674576000848401525b50505050565b6000600282049050600182168061269257607f821691505b602082108114156126a6576126a561270c565b5b50919050565b6126b58261276a565b810181811067ffffffffffffffff821117156126d4576126d361273b565b5b80604052505050565b7f4e487b7100000000000000000000000000000000000000000000000000000000600052601160045260246000fd5b7f4e487b7100000000000000000000000000000000000000000000000000000000600052602260045260246000fd5b7f4e487b7100000000000000000000000000000000000000000000000000000000600052604160045260246000fd5b6000601f19601f8301169050919050565b7f4552433732313a2063616c6c6572206973206e6f7420746f6b656e206f776e6560008201527f72206f7220617070726f76656400000000000000000000000000000000000000602082015250565b7f4552433732313a207472616e7366657220746f206e6f6e20455243373231526560008201527f63656976657220696d706c656d656e7465720000000000000000000000000000602082015250565b7f4552433732313a207472616e736665722066726f6d20696e636f72726563742060008201527f6f776e6572000000000000000000000000000000000000000000000000000000602082015250565b7f4552433732313a20746f6b656e20616c7265616479206d696e74656400000000600082015250565b7f4552433732313a207472616e7366657220746f20746865207a65726f2061646460008201527f7265737300000000000000000000000000000000000000000000000000000000602082015250565b7f4552433732313a20617070726f766520746f2063616c6c657200000000000000600082015250565b7f4552433732313a2061646472657373207a65726f206973206e6f74206120766160008201527f6c6964206f776e65720000000000000000000000000000000000000000000000602082015250565b7f4552433732313a206d696e7420746f20746865207a65726f2061646472657373600082015250565b7f4552433732313a20696e76616c696420746f6b656e2049440000000000000000600082015250565b7f4552433732313a20617070726f76616c20746f2063757272656e74206f776e6560008201527f7200000000000000000000000000000000000000000000000000000000000000602082015250565b7f4552433732313a20617070726f76652063616c6c6572206973206e6f7420746f60008201527f6b656e206f776e6572206f7220617070726f76656420666f7220616c6c000000602082015250565b612a51816125c4565b8114612a5c57600080fd5b50565b612a68816125d6565b8114612a7357600080fd5b50565b612a7f816125e2565b8114612a8a57600080fd5b50565b612a968161262e565b8114612aa157600080fd5b5056fea2646970667358221220ac8740d1125854d87364b942a7b516573bfedf0e042880136b8de1c4463961cd64736f6c63430008010033",
  "linkReferences": {},
  "deployedLinkReferences": {}
}